S0120000416C61726D636C6F636B2E7372656319
S11300000C9420010C944A010C944A010C944A016A
S11300100C944A010C944A010C944A010C944A0130
S11300200C944A010C944A010C944A010C944A0120
S11300300C944A010C944A010C94AB0B0C944A01A5
S11300400C944A010C944A010C944A010C944A0100
S11300500C944A010C944A010C944A010C944A01F0
S11300600C944A010C944A010C944A010C944A01E0
S11300700C944A010C944A010C944A010C944A01D0
S11300800C944A010C944A010C944A010C944A01C0
S11300900C944A010C944A010C944A010C944A01B0
S11300A00C944A010C944A010C944A010C944A01A0
S11300B00C944A010C944A010C944A010C944A0190
S11300C00C944A010C944A010C944A010C944A0180
S11300D00C944A010C944A010C944A010C944A0170
S11300E00C944A010C944A010C944A010C944A0160
S11300F00C944A010C944A010C944A010C944A0150
S11301000C944A010C944A010C944A010C944A013F
S11301100C944A010C944A010C944A010C944A012F
S11301200C944A010C944A010C944A010C944A011F
S11301300C944A010C94A8220C944A010C944A0190
S11301400C944A010C944A010C944A010C944A01FF
S11301500C944A010C944A010C944A010C944A01EF
S11301600C944A010C944A010C944A010C944A01DF
S11301700C944A010C944A010C944A010C944A01CF
S11301800C944A010C944A010C944A010C944A01BF
S11301900C944A010C944A010C944A010C944A01AF
S11301A00C944A010C944A010C944A010C944A019F
S11301B00C940C260C944A010C944A010C944A01A8
S11301C00C944A010C944A010C944A010C944A017F
S11301D00C944A010C944A010C944A010C944A016F
S11301E00C944A010C944A010C944A010C944A015F
S11301F00C944A010C944A010C944A015F1D5F1D42
S11302005F1DE61DB21DE01D5F1D5F1DE61DB21DD5
S11302100C94E01D0C949F280C949C180C9451226F
S11302200C94E61D0C94A9210C94411B0C94890692
S11302300C94E9220C94B21D0C94DD1F0C945F1DE8
S113024011241FBECFEFCDBFDFE3DEBF00E00CBF44
S1130250E2E5FDE28AEA90E48193E030F907E0F315
S1130260000010E2A0E0B0E2E6E9F4E600E00BBF33
S113027002C007900D92A03CB107D9F72DE2A0EC83
S1130280B0E201C01D92A235B207E1F70E94891FB6
S11302900C9449320C940000CF93DF93CDB7DEB7B2
S11302A080EA96E020E1FC01228380EA96E020E2E5
S11302B0FC01228380EA96E020E4FC01228380EAA8
S11302C096E020E8FC0122830000DF91CF9108959D
S11302D0CF93DF93CDB7DEB780EA96E0FC0180854B
S11302E0882F90E0807199279595879595958795A6
S11302F09595879595958795892B89F48091C0204C
S11303009091C12080369A4E20F58091C020909122
S1130310C12001968093C0209093C1201AC080917F
S1130320C0209091C1200B9768F08091C0209091DB
S1130330C120C39718F01092452D07C081E0809327
S1130340452D03C082E08093452D1092C020109269
S1130350C12080EA96E0FC018085882F90E08072BD
S113036099279595879595958795959587959595CD
S1130370879595958795892B89F48091C2209091D2
S1130380C32080369A4E20F58091C2209091C320DC
S113039001968093C2209093C3201AC08091C220FA
S11303A09091C3200B9768F08091C2209091C32054
S11303B0C39718F01092462D07C081E08093462D14
S11303C003C082E08093462D1092C2201092C32075
S11303D080EA96E0FC018085882F90E0807499275C
S11303E0082E892F000C881F990B000C881F991F59
S11303F0892B89F48091C4209091C52080369A4E2F
S113040020F58091C4209091C52001968093C4204A
S11304109093C5201AC08091C4209091C5200B9759
S113042068F08091C4209091C520C39718F0109271
S1130430472D07C081E08093472D03C082E080935D
S1130440472D1092C4201092C52080EA96E0FC014A
S1130450808588238CF08091C6209091C7208036B7
S11304609A4E20F58091C6209091C72001968093E2
S1130470C6209093C7201AC08091C6209091C720AF
S11304800B9768F08091C6209091C720C39718F00D
S11304901092482D07C081E08093482D03C082E06C
S11304A08093482D1092C6201092C7200000DF913F
S11304B0CF910895CF93DF931F92CDB7DEB7898391
S11304C08981882F90E08130910579F082309105FF
S11304D01CF4892B39F012C08230910549F003973E
S11304E051F00CC08091452D0AC08091462D07C063
S11304F08091472D04C08091482D01C082E00F9067
S1130500DF91CF9108950F93CF93DF9300D000D064
S1130510CDB7DEB78C839D836E838FE390E0FC01BF
S113052080818B83F8948C819D8189839A838BE36A
S113053090E0FC01108289819A812E81FC0108EDF2
S113054004BF20838FE390E02B81FC012083000013
S11305502696CDBFDEBFDF91CF910F910895CF9343
S1130560DF9300D0CDB7DEB789836A834B8380E500
S113057090E02A81222311F020E201C020E0398199
S1130580322B2B81232BFC01228300002396CDBF29
S1130590DEBFDF91CF910895CF93DF931F921F9217
S11305A0CDB7DEB789836A838A818F718A8380E5B8
S11305B090E039812A81232BFC01258300000F90D0
S11305C00F90DF91CF910895CF93DF931F921F92E5
S11305D0CDB7DEB78A8380E590E020E530E0F9010D
S11305E02081322F2A8120952323FC01208380E55A
S11305F090E0FC0190818A818923898389810F900D
S11306000F90DF91CF910895CF93DF9300D0CDB7B2
S1130610DEB78A836B839A818B81892B8983698175
S113062081E490E00E94830200002396CDBFDEBFE8
S1130630DF91CF910895CF93DF931F921F92CDB78F
S1130640DEB78A8380E490E0FC018081982F987F54
S11306508A81892B8983698180E490E00E948302E6
S113066080E490E0FC0190818A81892389838981D7
S11306700F900F90DF91CF910895CF93DF9300D027
S1130680CDB7DEB789839A836B8389819A81FC0114
S11306908081982F907F8B81892B282F89819A8143
S11306A0FC01208300002396CDBFDEBFDF91CF91F4
S11306B00895CF93DF9300D0CDB7DEB789839A83B3
S11306C06B8389819A81FC018181982F987F8B812A
S11306D0892B282F89819A81FC012183000023968C
S11306E0CDBFDEBFDF91CF910895CF93DF9300D0CC
S11306F0CDB7DEB789839A836B8389819A81FC01A4
S11307008681982F9C7F8B81892B282F89819A81C0
S1130710FC01268300002396CDBFDEBFDF91CF917D
S11307200895CF93DF9300D01F92CDB7DEB78983AE
S11307309A836B837C838BE20E94A503000024963A
S1130740CDBFDEBFDF91CF910895CF93DF931F928A
S11307501F92CDB7DEB78A838A818B3219F481E088
S113076089830EC08A818C3219F482E0898308C09F
S11307708A818F3219F483E0898302C084E08983FB
S11307800E94C80300000F900F90DF91CF9108954D
S1130790CF93DF93CDB7DEB7000084E390E028ED7C
S11307A0FC01208388E790E021E0FC012183000024
S11307B0DF91CF910895CF93DF931F921F92CDB70E
S11307C0DEB780E190E00E94180789839A838981CB
S11307D09A81892B61F089819A81FC0110821182AE
S11307E01282138289819A8104960E946A07898100
S11307F09A810F900F90DF91CF910895CF92DF925D
S1130800EF92FF920F931F93CF93DF93CDB7DEB791
S11308106D97CDBFDEBF8A8B9B8B4C8B5D8B6E8BB4
S11308207F8B288F098FCA8EDB8EEC8EFD8E8A8992
S11308309B8989879A871D821E821F8218861B8640
S11308400E94B51389859A85FC0180819181A281DA
S1130850B3818C879D87AE87BF872C893D894E895C
S11308605F898C859D85AE85BF85098DBC01CD01D1
S11308700E94A706888B8889882359F18C859D85D9
S1130880AE85BF8589839A83AB83BC831A8E1B8E06
S11308901C8E1D8E888D882309F465C089859A85F0
S11308A0FC0120813181428153818C899D89AE89EB
S11308B0BF8980959095A095B09582239323A42316
S11308C0B52329853A85F90180839183A283B38373
S11308D04AC08A8D9B8DAC8DBD8D892B8A2B8B2B29
S11308E059F48C859D85AE85BF8589839A83AB83B6
S11308F0BC8381E08B8737C0888D882349F08D8144
S11309009E81AF81B885B1608D839E83AF83B887A4
S1130910898D882349F08D819E81AF81B885B4602B
S11309208D839E83AF83B8872C893D894E895F89E7
S11309308D819E81AF81B885822B932BA42BB52BFF
S113094029853A85F90134962A8D3B8D4C8D5D8D30
S113095089019A01AC01BD01CF010E948816198258
S11309601A821B821C820E94C213898B8A8D9B8DE2
S1130970AC8DBD8D892B8A2B8B2B09F465C089899D
S1130980882311F40E94010B0E944419DC01CB015D
S113099089839A83AB83BC8389819A81AB81BC812F
S11309A088279927AA27B270892B8A2B8B2B09F0C9
S11309B042C0F091A200FF93F87FF093A2008985D2
S11309C09A85FC0180819181A281B38189839A8374
S11309D0AB83BC832C893D894E895F8989819A8147
S11309E0AB81BC81098DBC01CD010E94A70688237F
S11309F0E9F0888D8823D1F089859A85FC012081CE
S1130A003181428153818C899D89AE89BF898095CA
S1130A109095A095B09582239323A423B52329858B
S1130A203A85F90180839183A283B38381E08B8724
S1130A30FF91F093A20089819A81AB81BC81BB278D
S1130A4089839A83AB83BC8389819A81AB81BC817E
S1130A50BC01CD016D96CDBFDEBFDF91CF911F915B
S1130A600F91FF90EF90DF90CF900895CF93DF9395
S1130A70CDB7DEB72C97CDBFDEBF8F83988749876C
S1130A805A876B877C878F81988589839A83F091B5
S1130A90A200FF93F87FF093A20089819A81FC0160
S1130AA080819181A281B3818B839C83AD83BE833A
S1130AB089819A81FC012081318142815381898518
S1130AC09A85AB85BC8580959095A095B095822339
S1130AD09323A423B52329813A81F9018083918347
S1130AE0A283B383FF91F093A2008B819C81AD819B
S1130AF0BE81BC01CD012C96CDBFDEBFDF91CF916D
S1130B000895CF93DF93CDB7DEB76D97CDBFDEBF2A
S1130B10888F998F4A8F5B8F6C8F7D8F1B821C828D
S1130B201D821E82888D998D888799871F8288856A
S1130B30998504968A879B878A859B8503968C87EB
S1130B409D870E94B5138A859B85FC0187819085CA
S1130B5089839A8388859985FC012081318142812A
S1130B6053818A8D9B8DAC8DBD8D822B932BA42BB1
S1130B70B52B28853985F90180839183A283B383BA
S1130B8095C089819A81FC01848195818E879F8794
S1130B9089819A81FC0180819181A281B381888BB2
S1130BA0998BAA8BBB8B1F8288899989AA89BB8957
S1130BB088279927AA278C8B9D8BAE8BBF8B88891E
S1130BC09989AA89BB89BB27888B998BAA8BBB8BF4
S1130BD08C899D89AE89BF8988279927AA27B470F3
S1130BE0892B8A2B8B2BB1F488859985FC01208174
S1130BF031814281538188899989AA89BB89822359
S1130C009323A423B523892B8A2B8B2BE9F081E032
S1130C108F831AC088859985FC01208131814281A6
S1130C20538188899989AA89BB89282339234A232E
S1130C305B2388899989AA89BB89281739074A07B8
S1130C405B0711F481E08F838F81882359F18C89AC
S1130C509D89AE89BF8988279927AA27B170892BD6
S1130C608A2B8B2B81F02B813C814D815E8188897D
S1130C709989AA89BB89822B932BA42BB52B8B83AF
S1130C809C83AD83BE8388859985FC018081918195
S1130C90A281B381B26029813A81AC01BD01C9014D
S1130CA00E9463178E859F8589839A8329813A815F
S1130CB08C859D852817390709F063CF8885998528
S1130CC0FC0120813181428153818B819C81AD81E2
S1130CD0BE8180959095A095B09582239323A423FB
S1130CE0B52328853985F90180839183A283B38351
S1130CF00E94C21388859985FC0180819181A2811B
S1130D00B381BC01CD016D96CDBFDEBFDF91CF9124
S1130D100895CF93DF9300D000D0CDB7DEB7898399
S1130D209A834B835C836D837E838B819C81AD81AD
S1130D30BE8129813A81AC01BD01C9010E948105AE
S1130D4000002696CDBFDEBFDF91CF9108950F93AB
S1130D50CF93DF93CDB7DEB72A97CDBFDEBF6A83CB
S1130D607B838C839D832E833F83488759870A879F
S1130D7019828A85882399F42A813B814C815D817B
S1130D808E819F81A885B98582239323A423B523CB
S1130D90892B8A2B8B2BD1F081E0898317C02A8180
S1130DA03B814C815D818E819F81A885B9852823F3
S1130DB039234A235B238E819F81A885B98528170F
S1130DC039074A075B0711F481E0898389812A96F0
S1130DD0CDBFDEBFDF91CF910F9108950F931F9385
S1130DE0CF93DF93CDB7DEB72997CDBFDEBF8A831C
S1130DF09B834C835D836E837F8328873987288513
S1130E0039858C819D81AE81BF816A817B81890115
S1130E109C01AD0189E896E00E94F01E89838981D6
S1130E202996CDBFDEBFDF91CF911F910F91089519
S1130E30CF93DF9300D01F92CDB7DEB78B839C8313
S1130E4019821A820E94B5132091802C3091812C32
S1130E508B819C81820F931F883B9B4018F52091C6
S1130E60802C3091812C8B819C81280F391F80919B
S1130E70802C9091812C82179307A0F48091802C70
S1130E809091812C88539F4D89839A832091802C43
S1130E903091812C8B819C81820F931F8093802CB5
S1130EA09093812C0E94C21389819A812496CDBF8C
S1130EB0DEBFDF91CF910895CF93DF931F921F92EE
S1130EC0CDB7DEB789839A8300000F900F90DF912E
S1130ED0CF910895CF93DF931F921F92CDB7DEB7C2
S1130EE089839A8389819A819C012D5F3F4F8981EF
S1130EF09A81FC012183328329813A818FEF9FEF0C
S1130F00DC01F90183839483A583B68389819A8163
S1130F109C012D5F3F4F89819A81FC012783308793
S1130F2089819A819C012D5F3F4F89819A81FC01BF
S1130F302187328789819A81FC01108200000F90F9
S1130F400F90DF91CF910895CF93DF931F921F925B
S1130F50CDB7DEB789839A8389819A81FC01128691
S1130F60138600000F900F90DF91CF910895CF93D7
S1130F70DF9300D000D0CDB7DEB78B839C836D8325
S1130F807E838B819C81FC018181928189839A83F8
S1130F908D819E8129813A81FC0124833583898155
S1130FA09A81FC01268137818D819E81FC012683F3
S1130FB0378389819A81FC01868197812D813E81C5
S1130FC0FC012483358389819A812D813E81FC0132
S1130FD0268337838D819E812B813C81FC0122876E
S1130FE033878B819C81FC01808121E0280F8B81D8
S1130FF09C81FC01208300002696CDBFDEBFDF91DB
S1131000CF910895CF93DF93CDB7DEB72A97CDBFA5
S1131010DEBF8F83988769877A8789859A85FC01E3
S113102080819181A281B3818B839C83AD83BE83B4
S11310308B819C81AD81BE818F3F9F4FAF4FBF4F4E
S113104041F48F819885FC018185928589839A83F7
S113105020C08F819885039689839A8307C08981EC
S11310609A81FC018481958189839A8389819A81FB
S1131070FC0184819581FC0120813181428153816D
S11310808B819C81AD81BE8182179307A407B5072C
S113109030F789819A81FC012481358189859A857B
S11310A0FC012483358389859A85FC01848195819B
S11310B029853A85FC012683378389859A85298188
S11310C03A81FC012683378389819A8129853A856F
S11310D0FC012483358389859A852F813885FC0119
S11310E0228733878F819885FC01808121E0280F36
S11310F08F819885FC01208300002A96CDBFDEBF36
S1131100DF91CF910895CF93DF9300D01F92CDB795
S1131110DEB78B839C838B819C81FC0182859385C4
S113112089839A838B819C81FC01848195812B81A5
S11311303C81F90126813781FC01268337838B8129
S11311409C81FC01868197812B813C81F90124815A
S11311503581FC012483358389819A81FC012181B5
S113116032818B819C812817390751F48B819C81B2
S1131170FC012681378189819A81FC012183328394
S11311808B819C81FC011286138689819A81FC01E2
S113119080812FEF280F89819A81FC012083898126
S11311A09A81FC0180812496CDBFDEBFDF91CF916F
S11311B008951F93CF93DF93CDB7DEB780EA90E015
S11311C0FC01128180EA90E020EA30E0F9012281FA
S11311D0287FFC012283812FDF91CF911F910895F5
S11311E0CF93DF93CDB7DEB72A97CDBFDEBF8D8314
S11311F09E836F83788749875A878D819E8121E1F9
S1131200FC0120838D819E8101978D839E838D8136
S11312109E8122E2FC0120838D819E8101978D8332
S11312209E838D819E8123E3FC0120838D819E8199
S113123001978D839E838F819885CC01A0E0B0E0D7
S113124089839A83AB83BC8329818D819E81FC0130
S113125020838D819E8101978D839E8389819A81CC
S1131260AB81BC81892F9A2FAB2FBB2789839A83AB
S1131270AB83BC8329818D819E81FC0120838D8178
S11312809E8101978D839E8389819A81AB81BC81E4
S1131290892F9A2FAB2FBB2789839A83AB83BC8377
S11312A029818D819E81FC0120838D819E810197FE
S11312B08D839E838D819E8121E3FC0120838D811A
S11312C09E8101978D839E838D819E8120E8FC0100
S11312D020838D819E8101978D839E838D819E8144
S11312E027E8FC0120838D819E8101978D839E8355
S11312F08D819E81FC0110828D819E8101978D8359
S11313009E838D819E81FC0110828D819E81019737
S11313108D839E838D819E8122E0FC0120838D81BB
S11313209E8101978D839E838D819E8123E0FC01A4
S113133020838D819E8101978D839E838D819E81E3
S113134024E0FC0120838D819E8101978D839E83FF
S11313508D819E8125E0FC0120838D819E810197F2
S11313608D839E838D819E8126E0FC0120838D8167
S11313709E8101978D839E838D819E8127E0FC0150
S113138020838D819E8101978D839E838D819E8193
S113139028E0FC0120838D819E8101978D839E83AB
S11313A08D819E8129E0FC0120838D819E8101979E
S11313B08D839E838D819E8120E1FC0120838D811C
S11313C09E8101978D839E838D819E8121E1FC0105
S11313D020838D819E8101978D839E838D819E8143
S11313E022E1FC0120838D819E8101978D839E8360
S11313F08D819E8123E1FC0120838D819E81019753
S11314008D839E838D819E8124E1FC0120838D81C7
S11314109E8101978D839E838D819E8125E1FC01B0
S113142020838D819E8101978D839E838D819E81F2
S113143026E1FC0120838D819E8101978D839E830B
S11314408D819E8127E1FC0120838D819E810197FE
S11314508D839E838D819E8128E1FC0120838D8173
S11314609E8101978D839E838D819E8129E1FC015C
S113147020838D819E8101978D839E838D819E81A2
S113148020E2FC0120838D819E8101978D839E83C0
S11314908D819E8121E2FC0120838D819E810197B3
S11314A08D839E838D819E8122E2FC0120838D8128
S11314B09E8101978D839E838D819E8123E2FC0111
S11314C020838D819E8101978D839E8389859A8552
S11314D0CC01A0E0B0E089839A83AB83BC832981EB
S11314E08D819E81FC0120838D819E8101978D8356
S11314F09E8389819A81AB81BC81892F9A2FAB2FDE
S1131500BB2789839A83AB83BC8329818D819E8188
S1131510FC0120838D819E8101978D839E838D8123
S11315209E8126E2FC0120838D819E8101978D831B
S11315309E838D819E8127E2FC0120838D819E8183
S113154001978D839E838D819E8128E2FC012083F7
S11315508D819E8101978D839E838D819E8129E259
S1131560FC0120838D819E8101978D839E838D81D3
S11315709E8120E3FC0120838D819E8101978D83D0
S11315809E838D819E812A96CDBFDEBFDF91CF9150
S11315900895CF93DF93CDB7DEB70E94100CA091CE
S11315A0822CB091832C0D900DBE0D900EBEEF9148
S11315B0DF91CF91BF91AF919F918F917F916F9167
S11315C05F914F913F912F911F910F91FF90EF9059
S11315D0DF90CF90BF90AF909F908F907F906F904F
S11315E05F904F903F902F901F900F90FF91F0933A
S11315F0A200FF91FFBFFF91089581E0DF91CF9199
S11316000895FF93FFB7FF93F091A200FF93F87F33
S1131610F093A2000F921F9211242F923F924F92A7
S11316205F926F927F928F929F92AF92BF92CF926E
S1131630DF92EF92FF920F931F932F933F934F9359
S11316405F936F937F938F939F93AF93BF93CF9346
S1131650DF93EF93A091822CB091832C0DB60D9261
S11316600EB60D920E949015A091822CB091832CFD
S11316700D900DBE0D900EBEEF91DF91CF91BF91F5
S1131680AF919F918F917F916F915F914F913F9116
S11316902F911F910F91FF90EF90DF90CF90BF900B
S11316A0AF909F908F907F906F905F904F903F90FE
S11316B02F901F900F90FF91F093A200FF91FFBF16
S11316C0FF91089500001F93CF93DF931F92CDB72E
S11316D0DEB789838091492D982F8981892B809346
S11316E0492D80EA90E0FC018081813061F080EA3C
S11316F090E0FC018081823031F080EA90E0FC01CE
S11317008081843079F48091492D882359F00E9496
S1131710D908182F1092492D0E94901580EA90E064
S1131720FC01128300000F90DF91CF911F91089567
S11317301F93CF93DF93CDB7DEB70E94D908182F3C
S11317400E94801480EA90E0FC0112830000DF9183
S1131750CF911F910895FF93FFB7FF93F091A200DB
S1131760FF93F87FF093A2000F921F9211242F92FF
S11317703F924F925F926F927F928F929F92AF921D
S1131780BF92CF92DF92EF92FF920F931F932F930A
S11317903F934F935F936F937F938F939F93AF93F5
S11317A0BF93CF93DF93EF93A091822CB091832CBE
S11317B00DB60D920EB60D920E94980B81E00E9418
S11317C0630BA091822CB091832C0D900DBE0D90D3
S11317D00EBEEF91DF91CF91BF91AF919F918F9109
S11317E07F916F915F914F913F912F911F910F9135
S11317F0FF90EF90DF90CF90BF90AF909F908F902D
S11318007F906F905F904F903F902F901F900F901C
S1131810FF91F093A200FF91FFBFFF911895000084
S1131820CF93DF9300D01F92CDB7DEB780E09DE762
S1131830A0E0B0E089839A83AB83BC8389819A81D9
S1131840AB81BC81689415F8B695A7959795879553
S11318501694D1F789839A83AB83BC8389819A8157
S1131860AB81BC810197A109B10989839A83AB83B8
S1131870BC8380E098E029813A81FC0126A337A348
S113188065E080E098E00E943D0361E080E098E03C
S11318900E94750300002496CDBFDEBFDF91CF9177
S11318A00895CF93DF93CDB7DEB72597CDBFDEBFC5
S11318B08B839C836D838B819C8189839A83F09134
S11318C0A200FF93F87FF093A20089819A81FC0122
S11318D08081918129813A81F901278D422F50E03D
S11318E029813A81F90120A1222F30E0429FB001E1
S11318F0439F700D529F700D11249B01280F391FB7
S113190089819A81FC012283338389819A81FC0134
S1131910168E89819A81FC012081318189819A8185
S1131920FC012483358389819A81FC018081918122
S113193029813A81F901278D222F30E0A9014150F4
S1131940510929813A81F90120A1222F30E0429FD7
S1131950B001439F700D529F700D11249B01280FFD
S1131960391F89819A81FC012683378389819A8171
S11319702FEFFC0121A389819A812FEFFC0122A37F
S11319808D81882381F489819A81FC018085882353
S1131990A1F089819A8108960E94FB16882369F038
S11319A00E94010B0AC089819A8108960E946A07E5
S11319B089819A8143960E946A07FF91F093A2005D
S11319C081E02596CDBFDEBFDF91CF9108950F93BF
S11319D01F93CF93DF93CDB7DEB72997CDBFDEBF7B
S11319E08F83688749878885882319F419821A8226
S11319F00FC08F81482F50E08885282F30E0429F08
S1131A00C001439F900D529F900D112489839A83A6
S1131A1089819A8185960E9418078B839C838B8188
S1131A209C81892B81F08B819C8185968D839E83FB
S1131A302B813C818D819E8189012985AC0168853A
S1131A408F810E942D0D8B819C812996CDBFDEBF95
S1131A50DF91CF911F910F9108950F931F93CF930F
S1131A60DF93CDB7DEB72797CDBFDEBF89836A8307
S1131A704B835C832D830E831F838A81882341F4E7
S1131A808E819F812E813F81FC012083318307C099
S1131A908E819F812B813C81FC01208331838E8147
S1131AA09F812981FC01278F8E819F812A81FC01DE
S1131AB020A38E819F8161E00E94510C8E819F81C1
S1131AC02D81FC0124A300002796CDBFDEBFDF914A
S1131AD0CF911F910F9108950F93CF93DF93CDB7BB
S1131AE0DEB76297CDBFDEBF8A879B876C877D8711
S1131AF02E873F87488B598B0A8B19828A859B8551
S1131B008A839B83F091A200FF93F87FF093A20055
S1131B108A819B81FC01268D8A819B81FC01878DB2
S1131B20281718F08A89823019F52C853D858A8119
S1131B309B814A89B9010E946A0F8C838A819B81A7
S1131B40FC018389882351F08A819B8143960E94FA
S1131B50FB16882341F00E94010B05C08C81882369
S1131B6011F00E94010BFF91F093A20081E06FC07D
S1131B708E859F85A889B989892B8A2B8B2B29F47B
S1131B80FF91F093A20080E062C08981882331F440
S1131B90CE0105960E94C61781E08983FF91F093D8
S1131BA0A2000E94B513F091A200FF93F87FF09376
S1131BB0A2008A819B81FC0181A18F3F21F48A814B
S1131BC09B81FC0111A28A819B81FC0182A18F3F30
S1131BD021F48A819B81FC0112A2FF91F093A2005F
S1131BE09E01225F3F4FCE010596B9010E94E9177D
S1131BF0882331F58A819B810E94F5108823C9F0DE
S1131C008E859F85A889B9892A813B81285F3F4FAA
S1131C10AC01BD01C9010E9460168A819B810E94AA
S1131C206F100E94C213882309F06CCF0E94010B2D
S1131C3069CF8A819B810E946F100E94C21362CF78
S1131C408A819B810E946F100E94C21380E0629679
S1131C50CDBFDEBFDF91CF910F910895CF93DF9376
S1131C60CDB7DEB72C97CDBFDEBF8E839F83688749
S1131C7079874A875B872C878E819F818A839B83A0
S1131C800E94D9088C838A819B81FC01268D8A81DC
S1131C909B81FC01878D281718F08C85823089F58B
S1131CA08A819B81FC0182A18D83288539858A8163
S1131CB09B814C85B9010E946A0F8D818F3FB9F4D5
S1131CC08A819B81FC0183898823C1F08A819B815D
S1131CD043960E94FB16882389F08A859B85892B6D
S1131CE069F08A859B8521E0FC01208307C08D81F2
S1131CF08F5F282F8A819B81FC0122A381E0898345
S1131D0001C0198280EA90E02C81FC012283898140
S1131D102C96CDBFDEBFDF91CF910895CF93DF9393
S1131D20CDB7DEB76197CDBFDEBF8A879B876C874F
S1131D307D872E873F87488B598B19828A859B859F
S1131D408A839B83F091A200FF93F87FF093A20013
S1131D508A819B81FC01868D8C838C81882311F17F
S1131D602C853D858A819B81B9010E941F108C813D
S1131D702FEF280F8A819B81FC01268F8A819B810A
S1131D80FC018085882349F08A819B8108960E9402
S1131D90FB16882311F00E94010BFF91F093A2001F
S1131DA081E076C08E859F85A889B989892B8A2B85
S1131DB08B2B29F4FF91F093A20080E069C0898104
S1131DC0882331F4CE0105960E94C61781E08983E9
S1131DD0FF91F093A2000E94B513F091A200FF932B
S1131DE0F87FF093A2008A819B81FC0181A18F3F3F
S1131DF021F48A819B81FC0111A28A819B81FC01CF
S1131E0082A18F3F21F48A819B81FC0112A2FF9160
S1131E10F093A2009E01225F3F4FCE010596B901C7
S1131E200E94E917882331F58A819B810E94D4108E
S1131E308823C9F08E859F85A889B9892A813B8129
S1131E402D5E3F4FAC01BD01C9010E9460168A811D
S1131E509B810E946F100E94C213882309F072CFE5
S1131E600E94010B6FCF8A819B810E946F100E9498
S1131E70C21368CF8A819B810E946F100E94C21393
S1131E808A819B810E94D410882309F45BCF80E06F
S1131E906196CDBFDEBFDF91CF910895CF93DF93DD
S1131EA000D0CDB7DEB78A839B83F091A200FF9365
S1131EB0F87FF093A2008A819B81FC01868D89833F
S1131EC0FF91F093A20089812396CDBFDEBFDF91FD
S1131ED0CF910895CF93DF93CDB7DEB72797CDBFCA
S1131EE0DEBF8B839C836D837E834F831A828B81B9
S1131EF09C81FC01868D89838B819C81FC0180A15E
S1131F00882309F48EC08F818823D9F58B819C8125
S1131F10FC0180A1482F50E08B819C81FC018481CD
S1131F2095812D813E81B9010E94F0318B819C8184
S1131F30FC01248135818B819C81FC0180A1882F47
S1131F4090E0280F391F8B819C81FC012483358309
S1131F508B819C81FC01248135818B819C81FC01D6
S1131F60828193812817390708F45BC08B819C8197
S1131F70FC01208131818B819C81FC012483358388
S1131F8050C08B819C81FC0180A1482F50E08B8143
S1131F909C81FC01868197812D813E81B9010E943B
S1131FA0F0318B819C81FC01268137818B819C815E
S1131FB0FC0180A1882F90E0919581959109280FCB
S1131FC0391F8B819C81FC01268337838B819C8103
S1131FD0FC01268137818B819C81FC018081918168
S1131FE028173907A8F48B819C81FC012281338155
S1131FF08B819C81FC0180A1882F90E09195819533
S11320009109280F391F8B819C81FC01268337831A
S11320108F81823031F48981882319F0898181503C
S11320208983898121E0280F8B819C81FC01268F83
S11320308A812796CDBFDEBFDF91CF910895CF93DC
S1132040DF9300D01F92CDB7DEB789839A836B8369
S11320507C8389819A81FC0180A18823C9F18981CB
S11320609A81FC012681378189819A81FC0180A1B2
S1132070882F90E0280F391F89819A81FC012683DB
S1132080378389819A81FC012681378189819A81EC
S1132090FC01828193812817390750F089819A8144
S11320A0FC012081318189819A81FC012683378357
S11320B089819A81FC0180A1482F50E089819A810D
S11320C0FC01268137818B819C81B9010E94F0310A
S11320D000002496CDBFDEBFDF91CF910895CF934A
S11320E0DF9300D01F92CDB7DEB78B839C83F09132
S11320F0A200FF93F87FF093A2008B819C81FC01E6
S113210082A1898312C08B819C81FC0183898823ED
S113211081F08B819C8143960E94FB16882311F0E9
S11321200E949118898181508983898118165CF3F2
S113213001C000008B819C812FEFFC0122A3FF9141
S1132140F093A200F091A200FF93F87FF093A20015
S11321508B819C81FC0181A18A8312C08B819C812B
S1132160FC018085882381F08B819C8108960E94E4
S1132170FB16882311F00E9491188A8181508A836A
S11321808A8118165CF301C000008B819C812FEFBB
S1132190FC0121A3FF91F093A20000002496CDBF7F
S11321A0DEBFDF91CF910895CF93DF9300D0CDB7F9
S11321B0DEB78A839B83F091A200FF93F87FF093AC
S11321C0A2008A819B81FC01868D882319F481E019
S11321D0898301C01982FF91F093A200898123961B
S11321E0CDBFDEBFDF91CF910895CF93DF9300D0B1
S11321F0CDB7DEB78A839B83F091A200FF93F87F6B
S1132200F093A2008A819B81FC01268D8A819B81A7
S1132210FC01878D281719F481E0898301C0198294
S1132220FF91F093A20089812396CDBFDEBFDF9199
S1132230CF910895CF93DF93CDB7DEB72997CDBF64
S1132240DEBF8B839C834D835E836F83788729876E
S11322508B819C8189839A83F091A200FF93F87FFC
S1132260F093A20089819A81FC0181A18F3F21F41E
S113227089819A81FC0111A289819A81FC0182A140
S11322808F3F21F489819A81FC0112A2FF91F0937E
S1132290A20089819A81FC01868D882371F4898149
S11322A09A81FC0173968D819E81AF81B8852985C1
S11322B0AC01BD01CF010E94C71689819A810E9499
S11322C06F1000002996CDBFDEBFDF91CF91089536
S11322D08F929F92AF92BF92CF92DF92EF92FF9232
S11322E00F931F93CF93DF93CDB7DEB76097CDBF26
S11322F0DEBF8E839F83688779874A875B872C87B5
S11323003D870E87EF86F88A8A859B850E94180789
S11323108C839D838C819D81892BB9F08CE290E024
S11323200E94180789839A8389819A81892B41F0B5
S113233089819A812C813D81FC01238F348F07C0D0
S11323408C819D810E945C0702C019821A82898156
S11323509A81892B09F18A859B85CC01A0E0B0E0A4
S113236009811A814F8558892C853D856885798531
S1132370EE81FF81812C912C58016A01EE84890140
S11323809C01AD01CF010E94DF1189819A810E94D5
S1132390B51281E08B8302C08FEF8B838B816096B3
S11323A0CDBFDEBFDF91CF911F910F91FF90EF90D2
S11323B0DF90CF90BF90AF909F908F9008958F92B1
S11323C09F92AF92BF92CF92DF92EF92FF920F93C0
S11323D01F93CF93DF93CDB7DEB76497CDBFDEBF36
S11323E08C839D836E837F83288739874A875B87A5
S11323F00C871D87EE86CF86D88AA98ABA8A8B8AEB
S11324009C8A2885398589899A89FC01838D948DD4
S1132410A90165EA70E00E94F93189899A89FC0171
S1132420238D348D888599850197820F931F8A8324
S11324309B83198221C08981882F90E02981222FD2
S113244030E04E815F81240F351FF90140812989D5
S11324503A89820F931F4D96FC0140838981882F0E
S113246090E02E813F81820F931FFC01808188239D
S113247039F089818F5F898389818830E0F201C0D6
S1132480000089899A89FC0114A28E85843010F099
S113249083E08E8789899A892E85FC01228F898918
S11324A09A8902960E94A40789899A890E960E94A5
S11324B0A40789899A8929893A89FC012287338763
S11324C08E85882F90E0A0E0B0E024E030E040E08A
S11324D050E079018A01E81AF90A0A0B1B0BD801AA
S11324E0C70129893A89F90186879787A08BB18B1F
S11324F089899A8929893A89FC01268B378B8989AC
S11325009A89FC0117A210A611A612A689899A8994
S1132510FC0113A64C855D852C813D818A819B81BC
S1132520B9010E94F0089C0189899A89FC012083E1
S113253031838F859889892B39F08F8598892989EA
S11325403A89FC012083318300006496CDBFDEBF4D
S1132550DF91CF911F910F91FF90EF90DF90CF907B
S1132560BF90AF909F908F900895CF93DF931F9269
S11325701F92CDB7DEB789839A83F091A200FF93AF
S1132580F87FF093A2008091E02C8F5F8093E02C81
S11325908091822C9091832C892B69F489819A8172
S11325A08093822C9093832C8091E02C8130C9F409
S11325B00E94AD1816C08091E62C882391F4809176
S11325C0822C9091832CFC01228D89819A81FC01BB
S11325D0828D821730F089819A818093822C909326
S11325E0832C8091EA2C8F5F8093EA2C2091EA2C33
S11325F089819A81FC0125A389819A81FC01928DAC
S11326008091E52C891730F489819A81FC01828DAF
S11326108093E52C89819A81AC014E5F5F4F89815B
S11326209A81FC01828D282F30E06BE0629FC0010B
S1132630639F900D11248C57934DBA010E94B707E4
S1132640FF91F093A2008091E62C882371F0809191
S1132650822C9091832CFC01228D89819A81FC012A
S1132660828D281710F40E94010B00000F900F9028
S1132670DF91CF910895CF93DF93CDB7DEB7259740
S1132680CDBFDEBF6A837B838C839D8319828A815D
S11326909B81AC81BD81892B8A2B8B2B71F00E948D
S11326A0B5138A819B81AC81BD8140E0BC01CD0121
S11326B00E948A190E94C21389838981882311F494
S11326C00E94010B00002596CDBFDEBFDF91CF91A4
S11326D00895EF92FF920F93CF93DF931F92CDB79C
S11326E0DEB70F2EFFEEEF2EFCE2FF2EF02D00E002
S11326F020E030E048EC50E060E070E28CE998E1E2
S11327000E94681189838981813019F40E942B1AEF
S113271089838981813009F580EA90E020EA30E0FC
S1132720F9012281287FFC0122838FEF9FEFDC01D6
S11327308093EB2C9093EC2CA093ED2CB093EE2C87
S113274081E08093E62C1092E12C1092E22C1092FE
S1132750E32C1092E42C0E94C90A00000F90DF9130
S1132760CF910F91FF90EF900895CF93DF93CDB762
S1132770DEB78091F12C8F5F8093F12C0000DF9104
S1132780CF910895CF93DF9300D01F92CDB7DEB7DA
S113279019821A821B82F091A200FF93F87FF093B2
S11327A0A2008091F12C81508093F12C8091F12C26
S11327B0882309F074C08091E02C882309F46FC049
S11327C046C08091D12C9091D22CFC0180859185BA
S11327D089839A8389819A810E960E9483088981CC
S11327E09A8102960E94830889819A81FC01928DC4
S11327F08091E52C891730F489819A81FC01828DBE
S11328008093E52C89819A81AC014E5F5F4F898169
S11328109A81FC01828D282F30E06BE0629FC00119
S1132820639F900D11248C57934DBA010E94B707F2
S113283089819A81FC01228D8091822C9091832C34
S1132840FC01828D281718F081E08093E82C809198
S1132850CA2C882309F0B5CF89819A81892B11F07C
S11328600E94F0188091E72C8C838C81882379F066
S11328700E948014882319F081E08093E82C8C81D5
S113288081508C838C81882399F71092E72C809156
S1132890E82C882321F081E08B830E94010BFF91B7
S11328A0F093A2008B812496CDBFDEBFDF91CF9140
S11328B00895CF93DF9300D01F92CDB7DEB7F09188
S11328C0A200FF93F87FF093A2008091E12C9091F5
S11328D0E22CA091E32CB091E42C89839A83AB83FE
S11328E0BC83FF91F093A20089819A81AB81BC8162
S11328F0BC01CD012496CDBFDEBFDF91CF910895F9
S1132900CF93DF93CDB7DEB72D97CDBFDEBF19824E
S11329108091F12C882309F0F1C08091E12C9091F1
S1132920E22CA091E32CB091E42C0196A11DB11DE1
S11329308A839B83AC83BD838A819B81AC81BD8167
S11329408093E12C9093E22CA093E32CB093E42C9D
S11329508A819B81AC81BD81892B8A2B8B2BD9F4F5
S11329608091C62C9091C72C8E839F838091C82C14
S11329709091C92C8093C62C9093C72C8E819F81F3
S11329808093C82C9093C92C8091E92C8F5F8093FD
S1132990E92C0E94F0188091EB2C9091EC2CA091E2
S11329A0ED2CB091EE2C2A813B814C815D8128175E
S11329B039074A075B0708F48AC08091C62C9091B6
S11329C0C72CFC018081882361F48FEF9FEFDC0129
S11329D08093EB2C9093EC2CA093ED2CB093EE2CE5
S11329E076C08091C62C9091C72CFC01878190857C
S11329F0FC01808591858887998788859985FC0164
S1132A0082819381A481B5818A879B87AC87BD87A6
S1132A102A813B814C815D818A859B85AC85BD85FE
S1132A20281739074A075B0768F48A859B85AC85B4
S1132A30BD858093EB2C9093EC2CA093ED2CB0935C
S1132A40EE2C45C08885998502960E948308888566
S1132A509985FC01808D918D892B29F08885998534
S1132A600E960E94830888859985FC01928D809139
S1132A70E52C891730F488859985FC01828D809333
S1132A80E52C88859985AC014E5F5F4F88859985D3
S1132A90FC01828D282F30E06BE0629FC001639FB0
S1132AA0900D11248C57934DBA010E94B707888565
S1132AB09985FC01228D8091822C9091832CFC01BC
S1132AC0828D281708F479CF81E0898376CF8091AD
S1132AD0822C9091832CFC01828D282F30E04BE0D6
S1132AE0429FC001439F900D11248C57934DFC01CC
S1132AF08081823040F081E0898305C08091E72C99
S1132B008F5F8093E72C8091E82C882311F081E07B
S1132B10898389812D96CDBFDEBFDF91CF91089542
S1132B20CF93DF93CDB7DEB72997CDBFDEBF8091BA
S1132B30F12C882321F081E08093E82CBAC0109214
S1132B40E82C8091822C9091832CFC01838D948DB0
S1132B508A839B8385EA95EADC018C839D83AE831B
S1132B60BF838A819B81FC01208131814281538111
S1132B708C819D81AE81BF81281739074A075B0785
S1132B8099F58A819B810496FC01208131814281DF
S1132B9053818C819D81AE81BF81281739074A07F3
S1132BA05B0711F58A819B810896FC0120813181A4
S1132BB0428153818C819D81AE81BF812817390761
S1132BC04A075B0789F48A819B810C96FC0120816A
S1132BD03181428153818C819D81AE81BF812817CF
S1132BE039074A075B0771F08091822C9091832CFE
S1132BF09C01235E3F4F8091822C9091832CB901DC
S1132C000E9491038091E52C898303C089818150BE
S1132C1089838981282F30E04BE0429FC001439F84
S1132C20900D11248C57934DFC018081882371F3FE
S1132C308981282F30E04BE0429FC001439F900DD3
S1132C4011248C57934D8887998788859985FC0131
S1132C5081819281FC012481358188859985FC01DB
S1132C602183328388859985FC012181328188857D
S1132C70998503962817390769F488859985FC0195
S1132C8081819281FC012481358188859985FC01AB
S1132C902183328388859985FC0181819281FC019D
S1132CA0808591858093822C9093832C8981809355
S1132CB0E52C00002996CDBFDEBFDF91CF910895AA
S1132CC0CF93DF9300D000D0CDB7DEB789839A834A
S1132CD04B835C836D837E838091822C9091832CC3
S1132CE09C01225F3F4F89819A81B9010E940208A9
S1132CF08B819C81AD81BE8141E0BC01CD010E94EC
S1132D008A1900002696CDBFDEBFDF91CF910895CA
S1132D100F931F93CF93DF93CDB7DEB72A97CDBF21
S1132D20DEBF89839A834B835C836D837E830F83A9
S1132D30188729873A872091822C3091832C8B81A4
S1132D409C81AD81BE81B068F90186879787A08B8D
S1132D50B18B8091822C9091832C9C01225F3F4FF8
S1132D6089819A81B9010E94B7078F819885A985C5
S1132D70BA8541E0BC01CD010E948A1900002A965F
S1132D80CDBFDEBFDF91CF911F910F910895CF93F7
S1132D90DF93CDB7DEB72797CDBFDEBF89839A8394
S1132DA04B835C836D837E832F838091822C9091EF
S1132DB0832C9C01225F3F4F89819A81B9010E9433
S1132DC0B7078F81882339F08FEF9FEFDC018B8366
S1132DD09C83AD83BE838B819C81AD81BE814F81F9
S1132DE0BC01CD010E948A1900002796CDBFDEBF29
S1132DF0DF91CF910895CF93DF93CDB7DEB72597B9
S1132E00CDBFDEBF8C839D838C819D81FC01878136
S1132E109085FC01808591858A839B838A819B812F
S1132E200E960E9483088091F12C882351F58A81A3
S1132E309B8102960E9483088A819B81FC01928D6A
S1132E408091E52C891730F48A819B81FC01828D65
S1132E508093E52C8A819B81AC014E5F5F4F8A8110
S1132E609B81FC01828D282F30E06BE0629FC001C2
S1132E70639F900D11248C57934DBA010E94B7079C
S1132E8008C08A819B810E96BC018AEC9CE20E9458
S1132E90B7078A819B81FC01228D8091822C9091BD
S1132EA0832CFC01828D821730F481E0898381E0D8
S1132EB08093E82C01C0198289812596CDBFDEBF9D
S1132EC0DF91CF910895CF93DF93CDB7DEB72897E5
S1132ED0CDBFDEBF8B839C834D835E836F837887F6
S1132EE08D819E81AF81B885B0682B813C81F901C9
S1132EF080839183A283B3838B819C81FC01808531
S1132F00918589839A838B819C810E94830889811E
S1132F109A8102960E94830889819A81FC01928D8C
S1132F208091E52C891730F489819A81FC01828D86
S1132F308093E52C89819A81AC014E5F5F4F898132
S1132F409A81FC01828D282F30E06BE0629FC001E2
S1132F50639F900D11248C57934DBA010E94B707BB
S1132F6089819A81FC01228D8091822C9091832CFD
S1132F70FC01828D821718F481E08093E82C000014
S1132F802896CDBFDEBFDF91CF910895CF93DF9315
S1132F901F921F92CDB7DEB789839A832091E92CC3
S1132FA089819A81FC0120838091E12C9091E22C0B
S1132FB0A091E32CB091E42C29813A81F901818319
S1132FC09283A383B48300000F900F90DF91CF917D
S1132FD00895EF92FF920F931F93CF93DF93CDB792
S1132FE0DEB72D97CDBFDEBF8A879B876C877D8731
S1132FF0F091A200FF93F87FF093A2008091E12C5E
S11330009091E22CA091E32CB091E42C8A839B83D1
S1133010AC83BD838A859B85FC0181819281A381D8
S1133020B4812A813B814C815D8179018A01E81A4E
S1133030F90A0A0B1B0BD801C7018E839F83A8874B
S1133040B9878C859D85FC0180819181A281B381A2
S11330508F3F9F4FAF4FBF4F11F4198254C08A85E1
S11330609B85FC0190818091E92C981799F08A85C1
S11330709B85FC0121813281438154818A819B811A
S1133080AC81BD8182179307A407B50718F081E0CE
S1133090898339C08C859D85FC01208131814281E1
S11330A053818E819F81A885B98582179307A407D0
S11330B0B50700F58C859D85FC0120813181428115
S11330C053818E819F81A885B98579018A01E81A87
S11330D0F90A0A0B1B0BD801C7012C853D85F901A0
S11330E080839183A283B3838A859B850E94C617BC
S11330F0198209C08C859D85FC011082118212827F
S1133100138281E08983FF91F093A20089812D9637
S1133110CDBFDEBFDF91CF911F910F91FF90EF9054
S11331200895CF93DF93CDB7DEB781E08093E82C89
S11331300000DF91CF910895CF93DF931F921F92E8
S1133140CDB7DEB789839A830E94E8188091842CD6
S11331508230D0F30E94010BF7CFCF93DF931F92FD
S1133160CDB7DEB7198210C08981282F30E04BE03B
S1133170429FC001439F900D11248C57934D0E9490
S11331806A0789818F5F89838981843068F380EB42
S11331909CE20E946A078BEB9CE20E946A078AEC1D
S11331A09CE20E946A0785ED9CE20E946A0780EB1C
S11331B09CE28093C62C9093C72C8BEB9CE280936B
S11331C0C82C9093C92C00000F90DF91CF910895E3
S11331D0CF93DF93CDB7DEB70000DF91CF91089591
S11331E0CF93DF931F921F92CDB7DEB78091C62C89
S11331F09091C72CFC018081882361F48FEF9FEFAD
S1133200DC018093EB2C9093EC2CA093ED2CB093E9
S1133210EE2C1BC08091C62C9091C72CFC01878199
S11332209085FC018085918589839A8389819A811F
S1133230FC0182819381A481B5818093EB2C9093CE
S1133240EC2CA093ED2CB093EE2C00000F900F907B
S1133250DF91CF910895CF93DF931F92CDB7DEB75F
S11332608091E62C882319F481E0898308C0809139
S1133270F12C882319F482E0898301C019828981A1
S11332800F90DF91CF910895EF92FF920F931F93C8
S1133290CF93DF9300D01F92CDB7DEB78091822CFD
S11332A09091832CFC0186859785A089B1898983B7
S11332B09A83AB83BC836091822C7091832C809120
S11332C0822C9091832CFC01828D882F90E0A0E0C9
S11332D0B0E024E030E040E050E079018A01E81AEF
S11332E0F90A0A0B1B0BD801C701FB0186879787D4
S11332F0A08BB18B89819A81AB81BC81BC01CD014A
S11333002496CDBFDEBFDF91CF911F910F91FF9027
S1133310EF900895CF93DF93CDB7DEB72D97CDBF50
S1133320DEBF69877A878B879C874D878091E12CE4
S11333309091E22CA091E32CB091E42C89839A83A0
S1133340AB83BC838091822C9091832C02960E9443
S1133350830889859A85AB85BC858F3F9F4FAF4F86
S1133360BF4F71F48D85882359F08091822C909100
S1133370832C0296BC0185ED9CE20E94B70764C0D1
S113338029813A814B815C8189859A85AB85BC858D
S1133390820F931FA41FB51F8D839E83AF83B887AD
S11333A02091822C3091832C8D819E81AF81B885B0
S11333B0F90182839383A483B5832D813E814F8158
S11333C0588589819A81AB81BC81281739074A07BE
S11333D05B0778F48091822C9091832C9C012E5F62
S11333E03F4F8091C82C9091C92CB9010E940208CA
S11333F02BC08091822C9091832C9C012E5F3F4F97
S11334008091C62C9091C72CB9010E94020880912A
S1133410EB2C9091EC2CA091ED2CB091EE2C2D8105
S11334203E814F815885281739074A075B0760F4A6
S11334308D819E81AF81B8858093EB2C9093EC2C89
S1133440A093ED2CB093EE2C00002D96CDBFDEBFE3
S1133450DF91CF910895EF92FF920F93CF93DF9373
S11334601F92CDB7DEB719820E94BC1E80910C2D2D
S113347090910D2D892B91F00F2EFEE0EF2EFDE2A1
S1133480FF2EF02D03E020E030E048EC50E065E052
S113349070E281E49BE10E946811898389810F9025
S11334A0DF91CF910F91FF90EF900895CF92DF922B
S11334B0EF92FF920F931F93CF93DF93CDB7DEB7B5
S11334C06797CDBFDEBF8B879C876D872E873F872D
S11334D0488B598B0A8B1B8BCC8ADD8AEE8AFF8A38
S11334E0198280910C2D90910D2D892B09F444C0E3
S11334F08D858A838E859F85A889B9898B839C83D2
S1133500AD83BE838B859C858F8398878D8586301C
S113351034F50E942B19823099F4E0910C2DF0912E
S11335200D2D8C899D89AE89BF89BE016E5F7F4F49
S113353000E09C01AD01CF010E946C0D89831CC089
S113354080910C2D90910D2DBE016E5F7F4F00E098
S113355020E030E0A9010E946C0D89830DC08091A8
S11335600C2D90910D2D4A895B89BE016E5F7F4FB2
S113357020E00E942E0E898389816796CDBFDEBF2D
S1133580DF91CF911F910F91FF90EF90DF90CF903B
S11335900895CF92DF92EF92FF920F931F93CF93F0
S11335A0DF93CDB7DEB72B97CDBFDEBF6C837D83B2
S11335B08E839F83288739874A875B878091082D6C
S11335C09091092DFC0187819085FC01808591856E
S11335D089839A8389819A8102960E9483088981CA
S11335E09A81FC0182898130B1F589819A81FC013B
S11335F026853785408951898C819D81AE81BF8123
S1133600820F931FA41FB51FEC80FD800E811F81C4
S1133610288539854A855B85E981FA8167017801C6
S113362089019A01AC01BD01CF010E945F1C88236E
S113363091F08C819D81AE81BF81E981FA81C12C99
S1133640D12C760100E010E09C01AD0160E0CF01D7
S11336500E94561A8B8389819A81FC0125893689B7
S113366089819A81F901199500002B96CDBFDEBF9F
S1133670DF91CF911F910F91FF90EF90DF90CF904A
S11336800895CF93DF93CDB7DEB72797CDBFDEBFC5
S11336908E839F83CE0105960E94DC1BDC01CB0147
S11336A089839A83AB83BC832D8189819A81AB8181
S11336B0BC81422FBC01CD010E94611B0E94F81CF9
S11336C0E9CFEF92FF920F931F93CF93DF93CDB780
S11336D0DEB72A97CDBFDEBF6E837F838887998745
S11336E04A870E94B513CE0105960E941A1CDC017C
S11336F0CB0189839A83AB83BC838D81882309F0B2
S11337004EC08A858823E1F42E813F8148855985FE
S113371089819A81AB81BC8182179307A407B5077D
S113372078F00E94C21329813A814B815C818E8199
S11337309F81A885B985BC01CD010E94C91A31C0F9
S11337408A85882359F080910A2D90910B2DFC01D4
S1133750908181E0992309F080E08A872E813F815E
S11337604885598589819A81AB81BC8179018A0117
S1133770E81AF90A0A0B1B0BD801C701E0910C2DBA
S1133780F0910D2D2A85AC01BD01CF010E941A11C3
S11337900E94C213882329F40E94010B02C00E94D4
S11337A0C21300002A96CDBFDEBFDF91CF911F91D7
S11337B00F91FF90EF900895CF93DF9300D000D046
S11337C0CDB7DEB78D839E838091082D9091092D0E
S11337D0FC01908181E0992309F080E0282F8D81FC
S11337E09E81FC0120838D819E81FC018081882340
S11337F089F48091082D9091092DFC018781908591
S1133800FC0180819181A281B38189839A83AB83F6
S1133810BC8304C019821A821B821C8289819A810A
S1133820AB81BC81BC01CD012696CDBFDEBFDF914B
S1133830CF910895CF93DF9300D000D0CDB7DEB7FA
S11338408D839E830E945914DC01CB0189839A8362
S1133850AB83BC838091102D9091112DA091122DDA
S1133860B091132D29813A814B815C812817390746
S11338704A075B0740F40E94021E8D819E8121E06D
S1133880FC01208304C08D819E81FC01108289810A
S11338909A81AB81BC818093102D9093112DA093BC
S11338A0122DB093132D89819A81AB81BC81BC0107
S11338B0CD012696CDBFDEBFDF91CF910895CF9283
S11338C0DF92EF92FF920F931F93CF93DF93CDB7C5
S11338D0DEB72F97CDBFDEBF8A839B834C835D8386
S11338E06E837F83088719872A873B87CC86DD868A
S11338F0EE86FF8619822A813B818C819D81AE816F
S1133900BF81F90182839383A483B5838A819B81D8
S11339102A813B81FC01228733872C813D814E81A2
S11339205F8188859985AA85BB8582179307A4073B
S1133930B50740F1288539854A855B858C859D8549
S1133940AE85BF85281B390B4A0B5B0B8A819B8193
S1133950FC0186859785A089B189281739074A070C
S11339605B0718F081E0898336C08A819B819C01C2
S11339702E5F3F4F80910A2D90910B2DB9010E942B
S1133980020829C0288539854A855B858C859D85F3
S1133990AE85BF85281739074A075B0780F42C8159
S11339A03D814E815F818C859D85AE85BF852817BD
S11339B039074A075B0718F081E089830CC08A81C4
S11339C09B819C012E5F3F4F8091082D9091092D82
S11339D0B9010E94020889812F96CDBFDEBFDF9115
S11339E0CF911F910F91FF90EF90DF90CF900895AA
S11339F0CF92DF92EF92FF920F931F93CF93DF93B7
S1133A00CDB7DEB76597CDBFDEBFE0C08A8588231A
S1133A10FCF4CE010A96019689839A8389819A815E
S1133A20FC012081318189819A81FC018481958105
S1133A30A681B78149815A81FA010280F381E02D80
S1133A40EC8BFD8BAC01BD018C899D89F901199525
S1133A508A8588230CF4BAC08F8598898B839C83CC
S1133A608B819C81FC0184859585892B29F08B8130
S1133A709C8102960E948308CE0143960E941A1CE0
S1133A80DC01CB018D839E83AF83B8878A85082EA2
S1133A90000C990B092E000CAA0BBB0B40E050E064
S1133AA029E030E0841B950B2817390708F48DC0F2
S1133AB0FC018827E250FF4F8F4F0C94E831EB84D0
S1133AC0FC840D851E852B853C854D855E858B810B
S1133AD09C81FC0186859785A089B189820F931FFB
S1133AE0A41FB51F2D813E814F815885EB81FC8138
S1133AF06701780189019A01AC01BD01CF010E94DF
S1133B005F1C882309F462C08B819C81FC01258998
S1133B1036898B819C81F90119958B819C81FC01EB
S1133B208289813009F052C02B853C854D855E85A4
S1133B308B819C81FC0186859785A089B189820F40
S1133B40931FA41FB51FEB81FC81C12CD12C7601DE
S1133B5000E010E09C01AD0160E0CF010E94561A24
S1133B60898734C08B859C85AD85BE852B813C813E
S1133B70F90186879787A08BB18B8B819C81FC018F
S1133B8026853785408951898D819E81AF81B8858D
S1133B90820F931FA41FB51FED80FE800F8118852F
S1133BA02D813E814F815885EB81FC81670178012D
S1133BB089019A01AC01BD01CF010E945F1C06C0BE
S1133BC08B819C810E945C0701C0000080910C2DB8
S1133BD090910D2DBE01665F7F4F20E030E0A9017A
S1133BE00E948E0E882309F011CF00006596CDBF88
S1133BF0DEBFDF91CF911F910F91FF90EF90DF9087
S1133C00CF900895CF92DF92EF92FF920F931F937C
S1133C10CF93DF93CDB7DEB72D97CDBFDEBF82C084
S1133C208091082D9091092DFC0187819085FC01DC
S1133C3080819181A281B38189839A83AB83BC8380
S1133C408091082D9091092DFC0187819085FC01BC
S1133C50808591858D839E838D819E8102960E94AD
S1133C6083088D819E81FC01258936898D819E8101
S1133C70F90119958D819E81FC018289813009F0B9
S1133C8051C08D819E81FC012685378540895189EB
S1133C9089819A81AB81BC81820F931FA41FB51FB8
S1133CA08F839887A987BA872F81388549855A8554
S1133CB089819A81AB81BC8182179307A407B507D8
S1133CC0F8F42D813E818F819885A985BA85F90103
S1133CD082839383A483B5838D819E812D813E81CC
S1133CE0FC01228733878D819E819C012E5F3F4F8B
S1133CF08091082D9091092DB9010E94020812C0EB
S1133D0089819A81AB81BC81ED81FE81C12CD12C4A
S1133D10760100E010E09C01AD0160E0CF010E945B
S1133D20561A8B878091082D9091092DFC01808172
S1133D30882309F075CF8091082D9091092D8C87E7
S1133D409D8780910A2D90910B2D8093082D90933F
S1133D50092D8C859D8580930A2D90930B2D000051
S1133D602D96CDBFDEBFDF91CF911F910F91FF90B4
S1133D70EF90DF90CF900895CF93DF93CDB7DEB768
S1133D80F091A200FF93F87FF093A20080910C2D94
S1133D9090910D2D892BE9F482EF9CE20E946A0731
S1133DA08DEF9CE20E946A0782EF9CE28093082DCB
S1133DB09093092D8DEF9CE280930A2D90930B2D07
S1133DC040E069E085E00E94E70C80930C2D90931D
S1133DD00D2DFF91F093A2000000DF91CF91089583
S1133DE00F931F93CF93DF93CDB7DEB76497CDBF07
S1133DF0DEBF8B879C876D877E872F87388B498BA7
S1133E005A8B0B8B1C8B8EEF8A838B859C858B83C3
S1133E109C838D859E858D839E838F859889A989B2
S1133E20BA898F839887A987BA8780910C2D90913E
S1133E300D2D4B895C89BE016E5F7F4F20E00E948F
S1133E402E0E898389816496CDBFDEBFDF91CF9129
S1133E501F910F910895CF93DF93CDB7DEB780E51F
S1133E6090E020E530E0F90120812160FC0120830D
S1133E7080E590E0FC018181882F90E08170992792
S1133E80892BB1F380E00E941B038EE10E94E402BF
S1133E9060E080E00E94040343E060E080E40E946C
S1133EA0AF0280E590E020E530E0F9012081286050
S1133EB0FC01208380E590E0FC018181882F90E063
S1133EC088709927892BB1F364E080EC0E94CC02BE
S1133ED080E590E020E530E0F90120812061FC01DB
S1133EE0208360E080E00E94040380E590E0FC0110
S1133EF08181882F90E080719927892BB1F384E028
S1133F000E941B0387E00E94E4020000DF91CF912E
S1133F100895EF92FF920F93CF93DF931F92CDB743
S1133F20DEB70E94572F89830E942B1F0E94A1276E
S1133F300E94DB0380934A2D90934B2DE12CF12CAE
S1133F4001E020E030E048EC50E06DE070E289EE02
S1133F5092E20E946811E12CF12C03E020E030E0B1
S1133F6042ED50E066E170E281E592E20E94681160
S1133F70E12CF12C02E020E030E042ED50E06FE172
S1133F8070E28DED9FE10E946811E12CF12C03E0B9
S1133F9020E030E042ED50E066E270E289EA91E22E
S1133FA00E9468110E94691380E090E00F90DF91F5
S1133FB0CF910F91FF90EF900895CF93DF9300D0AE
S1133FC01F92CDB7DEB78B839C8319821A8280E857
S1133FD096E028E0FC01218306C061E070E080E007
S1133FE090E00E943B1380914A2D90914B2D892B98
S1133FF0A1F380E896E028E0FC01268380914A2D15
S113400090914B2D40E050E0BA010E943605DC014E
S1134010CB0189839A830E94EC2981E390E2892F62
S11340208F9381E390E28F931F921F921F921F92AE
S11340300E94FE290F900F900F900F900F900F90F9
S113404080911A2D882F90E08130910509F4A1C048
S11340508230910509F4F7C0892B09F052C10E94FE
S113406034230E94082480911B2D8823A9F481E421
S113407090E2892F8F9381E490E28F931F921F9295
S11340801F9283E08F930E94FE290F900F900F9050
S11340900F900F900F9014C086E590E2892F8F93B4
S11340A086E590E28F931F921F921F9283E08F9375
S11340B00E94FE290F900F900F900F900F900F9079
S11340C089819A8188279270892B79F081E0809385
S11340D01A2D80914A2D90914B2D42E050E060E0E2
S11340E070E00E94360510921C2D89819A81807897
S11340F09927892B79F082E080931A2D80914A2D9B
S113410090914B2D42E050E060E070E00E94360553
S113411010921C2D89819A8188709927892B69F0C6
S113412081E080931B2D80914A2D90914B2D42E08C
S113413050E060E070E00E94360589819A818072C7
S11341409927892B61F010921B2D80914A2D909113
S11341504B2D42E050E060E070E00E943605809113
S11341601B2D813009F0C8C08BE690E2892F8F9314
S11341708BE690E28F931F921F921F9282E08F939F
S11341800E94FE290F900F900F900F900F900F90A8
S1134190B3C00E94342380911C2D882F90E0BC0171
S11341A082E090E00E94DC248FE690E2892F8F93D6
S11341B08FE690E28F931F921F921F9283E08F935A
S11341C00E94FE290F900F900F900F900F900F9068
S11341D089819A8184709927892B51F080911C2DB3
S11341E0882F90E041E0BC0180E090E00E943025FF
S11341F089819A8180719927892B51F080911C2D96
S1134200882F90E04FEFBC0180E090E00E943025C1
S113421089819A8180749927892B59F080911C2D6A
S11342208F5F80931C2D80911C2D833010F0109291
S11342301C2D89819A8188279270892B09F45EC08C
S113424010921A2D5BC00E94082480911C2D882F87
S113425090E0BC0181E090E00E94DC248FE690E2D3
S1134260892F8F938FE690E28F931F921F921F9254
S113427083E08F930E94FE290F900F900F900F9070
S11342800F900F9089819A8184709927892B51F01E
S113429080911C2D882F90E041E0BC0181E090E0EA
S11342A00E94302589819A8180719927892B51F048
S11342B080911C2D882F90E04FEFBC0181E090E0AD
S11342C00E94302589819A8180749927892B59F01D
S11342D080911C2D8F5F80931C2D80911C2D833029
S11342E010F010921C2D89819A8188279270892B55
S11342F039F010921A2D04C0000003C0000001C060
S113430000000E94F025882371F080911B2D8130DC
S113431051F480914A2D90914B2D42E050E060E0A1
S113432070E00E94810580914A2D90914B2D4CEFB5
S113433053E060E070E00E94360580E896E028E0F3
S1134340FC01258368EC70E080E090E00E943B1360
S113435050CECF93DF931F921F92CDB7DEB78983E0
S11343609A830E944C010E94680180E00E945A02D4
S1134370813051F480914A2D90914B2D44E050E0CE
S113438060E070E00E94810581E00E945A02813061
S113439051F480914A2D90914B2D40E150E060E022
S11343A070E00E94810582E00E945A02813051F43B
S11343B080914A2D90914B2D40E450E060E070E0F4
S11343C00E94810583E00E945A02813051F4809159
S11343D04A2D90914B2D40E051E060E070E00E9446
S11343E0810580E00E945A02882351F480914A2D6D
S11343F090914B2D48E050E060E070E00E94810510
S113440081E00E945A02882351F480914A2D9091B0
S11344104B2D40E250E060E070E00E94810582E0B4
S11344200E945A02882351F480914A2D90914B2D79
S113443040E850E060E070E00E94810583E00E9463
S11344405A02882351F480914A2D90914B2D40E0DB
S113445052E060E070E00E9481056AE070E080E074
S113446090E00E943B137FCFCF93DF93CDB7DEB7AD
S113447080E099E027E0FC01208380E099E0FC01E2
S1134480118280E099E023E0FC01268380E099E03A
S113449021E13AE7FC0126A337A30000DF91CF9185
S11344A00895CF92DF92EF92FF920F93CF93DF9311
S11344B01F921F92CDB7DEB789839A830E9434225C
S11344C082E18093162D8FE08093152D1092142D88
S11344D082E18093192D80E18093182D1092172D7D
S11344E080914A2D90914B2DCC24CA94DC2C7601DA
S11344F000E021E041E050E060E070E00E94FE0353
S11345008091142D8F5F8093142D8091142D8C3302
S11345103CF08091152D8F5F8093152D1092142DF2
S11345208091152D8C333CF08091162D8F5F8093F4
S1134530162D1092152D8091162D883114F010929D
S1134540162D66E970E080E090E00E943B13C8CF2E
S11345501F920F9200903F000F92112400903B0095
S11345600F922F933F934F935F936F937F938F9308
S11345709F93AF93BF93EF93FF93CF93DF931F92D8
S1134580CDB7DEB7198280914A2D90914B2D9E01B3
S11345902F5F3F4F41E050E060E070E00E94EE0684
S11345A000000F90DF91CF91FF91EF91BF91AF91F8
S11345B09F918F917F916F915F914F913F912F9137
S11345C00F9000923B000F9000923F000F901F90BD
S11345D01895CF92DF92EF92FF920F93CF93DF93D0
S11345E01F921F92CDB7DEB789839A8380EA96E043
S11345F02FE0FC01218380EA96E02FE0FC01248374
S113460006C061E070E080E090E00E943B1380917E
S11346104A2D90914B2D892BA1F380914A2D909195
S11346204B2DCC24CA94DC2C760100E020E042E03F
S113463050E060E070E00E94FE0380EA96E02FE024
S1134640FC0126836EE170E080E090E00E943B1361
S113465080EA96E02FE0FC01258364E670E080E0C8
S113466090E00E943B13D9CFCF93DF93CDB7DEB751
S113467084E890E2892F8F9384E890E28F931F92CD
S113468083E08F931F9281E08F930E94FE290F9005
S11346900F900F900F900F900F908091162D8A30ED
S11346A0ECF08091162D082E000C990B292F2F93D6
S11346B08F9386E990E2892F8F9386E990E28F9316
S11346C01F928CE08F931F9281E08F930E94FE29AA
S11346D08DB79EB70896CDBFDEBF1CC08091162D46
S11346E0082E000C990B292F2F938F9386E990E2C3
S11346F0892F8F9386E990E28F931F928DE08F9399
S11347001F9281E08F930E94FE298DB79EB7089671
S1134710CDBFDEBF8091152D8A30ECF08091152D30
S1134720082E000C990B292F2F938F9386E990E282
S1134730892F8F9386E990E28F931F928FE08F9356
S11347401F9281E08F930E94FE298DB79EB7089631
S1134750CDBFDEBF1CC08091152D082E000C990B17
S1134760292F2F938F9386E990E2892F8F9386E9DF
S113477090E28F931F9280E18F931F9281E08F9339
S11347800E94FE298DB79EB70896CDBFDEBF8091EB
S1134790142D8A30ECF08091142D082E000C990B06
S11347A0292F2F938F9386E990E2892F8F9386E99F
S11347B090E28F931F9282E18F931F9281E08F93F7
S11347C00E94FE298DB79EB70896CDBFDEBF1CC0E0
S11347D08091142D082E000C990B292F2F938F9361
S11347E086E990E2892F8F9386E990E28F931F9256
S11347F083E18F931F9281E08F930E94FE298DB7EE
S11348009EB70896CDBFDEBF0000DF91CF9108951B
S1134810CF93DF93CDB7DEB789E990E2892F8F93E9
S113482089E990E28F931F9283E08F931F9282E035
S11348308F930E94FE290F900F900F900F900F906E
S11348400F908091192D8A30ECF08091192D082E4B
S1134850000C990B292F2F938F9386E990E2892FCF
S11348608F9386E990E28F931F928CE08F931F922F
S113487082E08F930E94FE298DB79EB70896CDBF24
S1134880DEBF1CC08091192D082E000C990B292F16
S11348902F938F9386E990E2892F8F9386E990E294
S11348A08F931F928DE08F931F9282E08F930E94CB
S11348B0FE298DB79EB70896CDBFDEBF8091182D17
S11348C08A30ECF08091182D082E000C990B292FBA
S11348D02F938F9386E990E2892F8F9386E990E254
S11348E08F931F928FE08F931F9282E08F930E9489
S11348F0FE298DB79EB70896CDBFDEBF1CC0809140
S1134900182D082E000C990B292F2F938F9386E9CD
S113491090E2892F8F9386E990E28F931F9280E132
S11349208F931F9282E08F930E94FE298DB79EB7CA
S11349300896CDBFDEBF8091172D8A30ECF08091B0
S1134940172D082E000C990B292F2F938F9386E98E
S113495090E2892F8F9386E990E28F931F9282E1F0
S11349608F931F9282E08F930E94FE298DB79EB78A
S11349700896CDBFDEBF1CC08091172D082E000CF9
S1134980990B292F2F938F9386E990E2892F8F9388
S113499086E990E28F931F9283E18F931F9282E0C6
S11349A08F930E94FE298DB79EB70896CDBFDEBFB8
S11349B00000DF91CF910895CF93DF9300D01F9231
S11349C0CDB7DEB789839A836B837C8389819A818F
S11349D00197F1F42B813C81C901880F991F820F43
S11349E0931F0C962BEA30E2232F2F932BEA30E20D
S11349F02F93292F2F938F931F9281E08F930E94DF
S1134A00FE290F900F900F900F900F900F9021C0E0
S1134A1089819A810297E9F42B813C81C901880F2D
S1134A20991F820F931F0C962EEA30E2232F2F93A7
S1134A302EEA30E22F93292F2F938F931F9282E037
S1134A408F930E94FE290F900F900F900F900F905C
S1134A500F9000002496CDBFDEBFDF91CF91089563
S1134A60CF93DF93CDB7DEB72597CDBFDEBF898364
S1134A709A836B837C834D8389819A81892B09F086
S1134A804EC08B819C8181309105E1F0823091058B
S1134A9079F1892B09F09DC08091162D982F8D8175
S1134AA0890F8093162D8091162D88231CF487E19D
S1134AB08093162D8091162D88310CF47FC01092AE
S1134AC0162D7CC08091152D982F8D81890F809390
S1134AD0152D8091152D88231CF48BE38093152DBF
S1134AE08091152D8C330CF46BC01092152D68C079
S1134AF08091142D982F8D81890F8093142D80918E
S1134B00142D88231CF48BE38093142D8091142D91
S1134B108C330CF457C01092142D000053C08981BB
S1134B209A81019709F055C08B819C818130910550
S1134B30D9F08230910569F1892B09F04AC080913E
S1134B40192D982F8D81890F8093192D8091192DFE
S1134B5088231CF487E18093192D8091192D8831C5
S1134B609CF11092192D30C08091182D982F8D81B1
S1134B70890F8093182D8091182D88231CF48BE3C2
S1134B808093182D8091182D8C3304F11092182DD8
S1134B901DC08091172D982F8D81890F8093172D1B
S1134BA08091172D88231CF48BE38093172D80911B
S1134BB0172D8C336CF01092172D0AC0000009C019
S1134BC0000007C0000005C0000003C0000001C0D1
S1134BD0000000002596CDBFDEBFDF91CF91089580
S1134BE0CF93DF93CDB7DEB79091192D8091162D19
S1134BF0981771F49091182D8091152D981741F400
S1134C009091172D8091142D981711F481E001C013
S1134C1080E0DF91CF9108951F920F9200903F00A2
S1134C200F92112400903B000F922F933F934F93C8
S1134C305F936F937F938F939F93AF93BF93EF9300
S1134C40FF93CF93DF931F92CDB7DEB71982809184
S1134C50502D9091512D9E012F5F3F4F41E050E028
S1134C6060E070E00E94EE0660E080E09BE00E945D
S1134C703D0380E09BE0FC01168200000F90DF9171
S1134C80CF91FF91EF91BF91AF919F918F917F91C0
S1134C906F915F914F913F912F910F9000923B0044
S1134CA00F9000923F000F901F901895CF92DF92C3
S1134CB0EF92FF920F93CF93DF9300D01F92CDB763
S1134CC0DEB769837A838B839C8389819A81AB81E4
S1134CD0BC810297A105B10540F482E090E0A0E018
S1134CE0B0E089839A83AB83BC8380E09BE021E0BE
S1134CF0FC01268380E09BE0FC0110A211A260E08D
S1134D0080E09BE00E94590389819A81AB81BC8138
S1134D108E3F9F4FA105B10598F420E03BE08981C7
S1134D209A81AB81BC81B695A79597958795F90132
S1134D3086A397A365E080E09BE00E943D031FC02B
S1134D4089819A81AB81BC8180349244AF40B105A2
S1134D50B0F420E03BE089819A81AB81BC81689406
S1134D6014F8B695A795979587951694D1F7F901F8
S1134D7086A397A367E080E09BE00E943D038091B7
S1134D80502D9091512D0F2EF4EFCF2EDD24D3947E
S1134D90E12CF12CF02D00E021E041E050E060E056
S1134DA070E00E94FE0300002496CDBFDEBFDF91B9
S1134DB0CF910F91FF90EF90DF90CF900895CF9314
S1134DC0DF931F92CDB7DEB7898389818F70898382
S1134DD089818295807F898380E096E020E036E0B7
S1134DE0F901348129812F602323FC01248380E08D
S1134DF096E020E036E0F90134812981232BFC017F
S1134E00248300000F90DF91CF910895CF93DF9317
S1134E101F92CDB7DEB789838981882331F080E67C
S1134E2096E021E0FC01258305C080E696E021E0C0
S1134E30FC01268300000F90DF91CF910895CF935A
S1134E40DF931F92CDB7DEB789838981882331F040
S1134E5080E696E022E0FC01258305C080E696E02A
S1134E6022E0FC01268300000F90DF91CF9108958A
S1134E70CF93DF931F92CDB7DEB7898389818823CF
S1134E8031F080E696E024E0FC01258305C080E64D
S1134E9096E024E0FC01268300000F90DF91CF917F
S1134EA00895CF93DF93CDB7DEB781E00E94382712
S1134EB061E070E080E090E00E94562680E00E946D
S1134EC038270000DF91CF910895CF93DF931F928D
S1134ED0CDB7DEB78983898182958F700E94DF26E2
S1134EE080E00E94062780E00E941F270E9451272D
S1134EF089818F700E94DF260E94512700000F9045
S1134F00DF91CF910895CF93DF931F92CDB7DEB792
S1134F108983898182958F700E94DF2681E00E94B7
S1134F20062780E00E941F270E94512789818F70E5
S1134F300E94DF260E94512700000F90DF91CF913D
S1134F400895EF92FF920F93CF93DF93CDB7DEB71F
S1134F5080E096E020E1FC01218380E096E020E2FD
S1134F60FC01218380E096E020E4FC01218380E0C1
S1134F7096E020E8FC01218380E696E021E0FC0134
S1134F80218380E696E022E0FC01218380E696E01E
S1134F9024E0FC01218380E096E020E036E0F90182
S1134FA024812F70FC01248380E696E020E636E01D
S1134FB0F9012481287FFC01248340E066E188E034
S1134FC00E94E70C80934E2D90934F2D0E94DB039B
S1134FD08093502D9093512DE12CF12C01E020E091
S1134FE030E04EE551E061EB70E28FE998E20E9417
S1134FF068110000DF91CF910F91FF90EF90089519
S1135000CF93DF9300D01F92CDB7DEB789839A8305
S11350106B837C8389819A818130910589F0823008
S113502091051CF4892B39F01AC08230910569F07E
S1135030039781F014C08B8180580E9465270FC0AC
S11350408B8180540E9465270AC08B818C560E94F4
S1135050652705C08B818C520E946527000067E29A
S113506070E080E090E00E94562600002496CDBFB8
S1135070DEBFDF91CF910895CF93DF931F92CDB719
S1135080DEB7898389810E9483276BE270E080E028
S113509090E00E94562600000F90DF91CF91089572
S11350A0CF93DF9300D01F92CDB7DEB78B839C8361
S11350B019821A8219C089819A812B813C81820FBD
S11350C0931FFC0180818823A1F089819A812B811F
S11350D03C81820F931FFC0180810E943C288981BE
S11350E09A81019689839A8389819A8144971CF3D2
S11350F001C0000000002496CDBFDEBFDF91CF9138
S11351000895CF93DF9300D000D0CDB7DEB7898365
S11351109A836B837C834D835E832B813C8189815D
S11351209A81B9010E9400288D819E810E94502895
S113513000002696CDBFDEBFDF91CF910895CF93B7
S1135140DF93CDB7DEB7C057D109CDBFDEBF9E0117
S113515021593F4FF9018083918319821A821B825E
S11351601C821D821E8226C01F8218861AC02D81B1
S11351703E8144E1429FC001439F900D11249E0152
S11351802F5F3F4F280F391F8F819885820F931F00
S1135190089620E2FC0120838F81988501968F83F5
S11351A098878F819885449714F38D819E81019609
S11351B08D839E838D819E810497B4F260E47CE9A3
S11351C080E090E00E94562683E00E94DF2668E893
S11351D073E180E090E00E9456260E94512760EA25
S11351E070E080E090E00E9456260E94512760EA19
S11351F070E080E090E00E9456260E94512760EA09
S113520070E080E090E00E94562682E00E94DF2653
S11352100E94512788E20E94652780E10E94652749
S11352208CE00E94652786E00E94652768EC70E0A8
S113523080E090E00E943B138091502D9091512D7D
S113524040E050E0BA010E943605DC01CB01892B15
S11352508A2B8B2B09F496C08091502D9091512D5F
S113526042E050E060E070E00E94360519821A8244
S113527026C01B821C821AC029813A8144E1429FC4
S1135280C001439F900D11249E012F5F3F4F280FB3
S1135290391F8B819C81820F931F089620E2FC01A9
S11352A020838B819C8101968B839C838B819C8141
S11352B0449714F389819A81019689839A83898119
S11352C09A810497B4F25EC080914E2D90914F2D37
S11352D0BE01675A7F4F2FEF3FEFA9010E948E0E48
S11352E0882309F44FC019821A8232C0CE01875A2A
S11352F09F4FFC018081482F50E0CE01875A9F4F79
S1135300FC018181282F30E089819A81820F931FCB
S1135310BE01675A7F4F29813A81260F371F2E5FBE
S11353203F4FF901608174E1749F9001759F300DC6
S11353301124AE014F5F5F4F240F351F820F931F5F
S11353400896FC01608389819A81019689839A83F6
S1135350CE01875A9F4FFC018181282F30E089813B
S11353609A81820F931F44976CF49E01275A3F4FF2
S113537089819A81820F931F0296FC018081882380
S113538009F0B4CF80914E2D90914F2D0E944E0F75
S1135390882309F099CF19821A8219C09E01275FC8
S11353A03F4F49815A8164E1649FC001659F900D1C
S11353B01124280F391F89819A81A90160E070E0C6
S11353C00E94812889819A81019689839A8389819F
S11353D09A8104971CF32ACFCF93DF93CDB7DEB71E
S11353E08091502D9091512D42E050E060E070E0AA
S11353F00E9481050000DF91CF910895CF93DF9340
S11354001F921F92CDB7DEB7CE010E9689839A8381
S113541029813A814C855D856A857B858885998556
S11354200E94182A00000F900F90DF91CF910895E9
S11354300F93CF93DF93CDB7DEB7EC97CDBFDEBF2D
S11354408DAB9EAB6FAB78AF49AF5AAF2BAF3CAFD0
S113545019821A821B821C820BC08B819C81835E01
S1135460924DFC0110828B819C8101968B839C83DD
S11354708B819C8144978CF31D821E820BC08D818D
S11354809E818F5C924DFC0110828D819E810196DC
S11354908D839E838D819E8144978CF3BEC18D89BB
S11354A0853209F0A0C189AD9AAD9C012F5F3F4FB1
S11354B029AF3AAFFC0180818D8B8D89882F90E0D4
S11354C08536910509F446C18636910554F4833630
S11354D0910501F1843691050CF070C0859769F04F
S11354E09CC18337910571F18837910509F4A8C0EF
S11354F08636910509F4E6C090C189819A818F5C52
S1135500924D25E2FC01208389819A810196898349
S11355109A8383C18BAD9CAD9C012E5F3F4F2BAF13
S11355203CAFFC01808191818E8B89819A818F5C53
S1135530924D2E89FC01208389819A810196898369
S11355409A836BC18BAD9CAD9C012E5F3F4F2BAFFB
S11355503CAFFC01808191818F8B988F1F821886CC
S113556017C029813A818F819885820F931F2F81DB
S113557038854F89588D240F351FF90120818F5CA0
S1135580924DFC0120838F81988501968F839887A3
S11355908F89988D0E9400329C018F819885821793
S11355A09307F8F28F89988D0E9400329C018981BB
S11355B09A81820F931F89839A832FC18BAD9CADEF
S11355C09C012E5F3F4F2BAF3CAFFC01808191814A
S11355D0898F9A8F898D9A8D4AE050E06DE17DE242
S11355E00E94093219861A8615C029813A81898553
S11355F09A85820F931F29853A85235E324DF901DE
S113560020818F5C924DFC01208389859A850196C7
S113561089879A878DE19DE20E9400329C018985E9
S11356209A858217930708F38DE19DE20E94003268
S11356309C0189819A81820F931F89839A83EDC08B
S11356408BAD9CAD9C012E5F3F4F2BAF3CAFFC015B
S113565080819181898F9A8F898D9A8D40E150E064
S11356606DE17DE20E9409321B861C8615C02981EA
S11356703A818B859C85820F931F2B853C85235E05
S1135680324DF90120818F5C924DFC0120838B8582
S11356909C8501968B879C878DE19DE20E94003258
S11356A09C018B859C858217930708F38DE19DE20D
S11356B00E9400329C0189819A81820F931F898301
S11356C09A83ABC08BAD9CAD9C012C5F3F4F2BAF3D
S11356D03CAFFC0180819181A281B3818B8F9C8F2F
S11356E0AD8FBE8F8B8D9C8DAD8DBE8DAC01BD01FC
S11356F08DE19DE20E94E72C1D861E8615C029813E
S11357003A818D859E85820F931F2D853E85235E6C
S1135710324DF90120818F5C924DFC0120838D85EF
S11357209E8501968D879E878DE19DE20E940032C1
S11357309C018D859E858217930708F38DE19DE278
S11357400E9400329C0189819A81820F931F898370
S11357509A8363C08BAD9CAD9C012C5F3F4F2BAFF4
S11357603CAFFC0180819181A281B3818B8F9C8F9E
S1135770AD8FBE8F8B8D9C8DAD8DBE8DAC01BD016B
S11357808DE19DE20E94362E1F86188A15C029815C
S11357903A818F859889820F931F2F853889235EDC
S11357A0324DF90120818F5C924DFC0120838F855D
S11357B0988901968F87988B8DE19DE20E94003233
S11357C09C018F8598898217930708F38DE19DE2E8
S11357D00E9400329C0189819A81820F931F8983E0
S11357E09A8300001AC089819A818F5C924D2D8919
S11357F0FC01208389819A818F5C924DFC01808118
S11358008A3031F489819A818F5C924DFC01108237
S113581089819A81019689839A8389AD9AAD9C0185
S11358202F5F3F4F29AF3AAFFC0180818D8B8D896B
S1135830882309F034CE29813A818FA998AD820F4B
S1135840931F449754F024E130E08FA998ADA90147
S1135850481B590BCA0189839A83198A1A8A0EC074
S11358609E012F5D3F4F89899A89820F931FFC0106
S1135870108289899A890196898B9A8B89899A8958
S1135880449774F38DA98F8F8FA988A31B8A1C8AD0
S113589014C08B899C898F5C924DFC0140819E01D0
S11358A02F5D3F4F8B899C89820F931FFC0140839E
S11358B08B899C8901968B8B9C8B2B893C89898154
S11358C09A81281739072CF380914E2D90914F2DF2
S11358D0BE01615E7F4F00E02FEF3FEFA9010E9400
S11358E06C0D89819A81EC96CDBFDEBFDF91CF919B
S11358F00F910895CF93DF93CDB7DEB72897CDBF2F
S1135900DEBF8F83988719821A828F819885FC0164
S113591080819181A281B3818B839C83AD83BE837B
S113592015C020E030E040E251E46B817C818D8140
S11359309E810E941C30DC01CB018B839C83AD8350
S1135940BE8389819A81019689839A8320E030E01D
S113595040E85FE36B817C818D819E810E9476317A
S11359608823FCF615C020E030E040E251E46B816E
S11359707C818D819E810E947B31DC01CB018B83F4
S11359809C83AD83BE8389819A81019789839A839D
S11359902DEC3CEC4CEC5DE36B817C818D819E8134
S11359A00E9417308823FCF22F8138858B819C81DB
S11359B0AD81BE81F90180839183A283B383898100
S11359C09A812896CDBFDEBFDF91CF910895CF9203
S11359D0DF92EF92FF92CF93DF93CDB7DEB72E978E
S11359E0CDBFDEBF89879A874B875C876D877E87AB
S11359F019821A821B821C828B859C85AD85BE858B
S1135A0020E030E0A901BC01CD010E9417308823B9
S1135A1059F489859A8520E3FC01208389859A8538
S1135A200196FC01108218C18B859C85AD85BE85CD
S1135A3020E030E0A901BC01CD010E941730882389
S1135A409CF489859A859C012F5F3F4F29873A876B
S1135A502DE2FC0120838B859C85AD85BE85B058E5
S1135A608B879C87AD87BE87CE010B960E947A2CCC
S1135A7089839A8353C08B859C85AD85BE8520E040
S1135A8030E040E251E4BC01CD010E947B31DC01F5
S1135A90CB01BC01CD010E948E30DC01CB018D8392
S1135AA09E8389859A859C012F5F3F4F29873A877A
S1135AB02D81205DFC0120838B859C85AD85BE8571
S1135AC020E030E040E251E4BC01CD010E947B3192
S1135AD0DC01CB016C017D018D819E81092E000CBE
S1135AE0AA0BBB0BBC01CD010E94C630DC01CB016B
S1135AF09C01AD01C701B6010E94AA2FDC01CB01B4
S1135B008B879C87AD87BE878B819C8101968B8315
S1135B109C8389819A81019789839A8389819A8157
S1135B20181619060CF4A7CF8B819C81892B51F48C
S1135B3089859A859C012F5F3F4F29873A8720E307
S1135B40FC01208389859A859C012F5F3F4F29871B
S1135B503A872EE2FC01208314C089859A859C0132
S1135B602F5F3F4F29873A8720E3FC0120838981F7
S1135B709A81019789839A838B819C8101968B8377
S1135B809C8389819A8199230CF058C08091BC2010
S1135B909091BD202B813C8128173907F4F24EC027
S1135BA08B859C85AD85BE8520E030E040E251E4E4
S1135BB0BC01CD010E947B31DC01CB01BC01CD01D4
S1135BC00E948E30DC01CB018F83988789859A856A
S1135BD09C012F5F3F4F29873A872F81205DFC016D
S1135BE020838B859C85AD85BE8520E030E040E236
S1135BF051E4BC01CD010E947B31DC01CB016C017D
S1135C007D018F819885092E000CAA0BBB0BBC016A
S1135C10CD010E94C630DC01CB019C01AD01C7015E
S1135C20B6010E94AA2FDC01CB018B879C87AD872C
S1135C30BE878B819C8101968B839C838091BC2041
S1135C409091BD202B813C81281739070CF4A8CFF3
S1135C5089859A85FC0110822E96CDBFDEBFDF9127
S1135C60CF91FF90EF90DF90CF900895CF92DF9285
S1135C70EF92FF92CF93DF93CDB7DEB72E97CDBFD0
S1135C80DEBF89879A874B875C876D877E871B82F7
S1135C901C828B859C85AD85BE8520E030E0A90102
S1135CA0BC01CD010E941730882359F489859A8557
S1135CB020E3FC01208389859A850196FC011082EA
S1135CC0ECC08B859C85AD85BE8520E030E0A901C4
S1135CD0BC01CD010E94173088239CF489859A85E4
S1135CE09C012F5F3F4F29873A872DE2FC012083D7
